:0300000002056A8C
:0C056A00787FE4F6D8FD7581190203D8F3
:1004B6003F065B4F666D7D077F6FBF86DBCFE6ED40
:0D04C600FD87FFEF00FEFDFBF7EFDFBF7FBE
:0D055C00EFD3940040077E13DEFE1F80F3F6
:01056900226F
:10024800E50A6401705C750B14750C0A750D05F5EB
:100258000EAE17AF187C037DE81201E58F0FAE17BD
:10026800AF187C037DE81201E57E007F64CFCDCF17
:10027800CECCCE1201E5EF240AF510AE17AF187CEC
:10028800007D641201E57E007F0ACFCDCFCECCCEB3
:100298001201E58F11AE17AF187C007D0A1201E537
:1002A8008D12E50A705C750B14750C0A750D05F551
:1002B8000EAE13AF147C037DE81201E58F0FAE1369
:1002C800AF147C037DE81201E57E007F64CFCDCFBB
:1002D800CECCCE1201E5EF240AF510AE13AF147C94
:1002E800007D641201E57E007F0ACFCDCFCECCCE53
:1002F8001201E58F11AE13AF147C007D0A1201E5DF
:100308008D12E4FD740B2DF8E69004B693F580ED9C
:0F0318009004CB93F5907F1412055C0DBD08E5A2
:0103270022B3
:1003280020B01E7FC812055C20B016750A01C2A550
:10033800C2A7E4F515F516D28C20B0051202488044
:10034800F8AE15AF167C007D051201D38E178F18F5
:100358007D0A1201E58E178F18AC17AD18E412014B
:1003680019E4FBFAF9783F12000E1201528E138F2E
:1003780014120248D3E518940FE51794274005E4B2
:10038800F50AD2A520B1487FC812055C20B140E427
:10039800F50AD2A5D2A7C28CAE15AF16FC7D051200
:1003A80001D38E178F187D0A1201E58E178F18ACAE
:1003B80017AD18E4120119E4FBFAF9783F12000EA0
:1003C8001201528E138F1420B10512024880F822B0
:1003D800120576758901D2AFD2A9758C3C758AB0A1
:1003E800E4F50AF517F518D2A5D2A77F421204ED55
:1003F80012052C7508008F09AC08AD09E412011923
:100408007B7F7AFB79FA783F12000E1201528E0830
:100418008F09C3E509947DE50894005004C2A680BD
:0B04280002D2A612032812024880C571
:03000B00020519D2
:10051900C0E0758C3C758AB00516E51670020515A4
:03052900D0E032ED
:0700030000000000000022D4
:10050500D2A0120003D2A1120003C2A0120003C29E
:04051500A10200033C
:05057600D2A0D2A12279
:0F053E00C2A0120003D2A1120003D2A002000338
:06049800120505120456D6
:10049E00D2A112000330A00BE519C394C850040575
:0804AE001980F2C2A102000353
:0F054D00D2A1120003D2A0120003C2A102000328
:10045600C2A1120003E4FEEF3392A0EF25E0FFD223
:10046600A1120003C2A11200030EBE08EAD2A00226
:02047600000381
:10047800C2A1120003E4FED2A1120003A2A0E43339
:0F048800FDEF25E04DFFC2A11200030EBE08E8F4
:010497002242
:1004D300AE07AC03120498AF0512045612049EAF84
:0A04E3000412045612054D02053EF6
:02043300AC0714
:10043500120498AF0512045612049E120505EC0429
:10044500FF12045612049E12047812054D12053E41
:010455002284
:10052C001205057F9112045612049E1204781205CE
:01053C003E80
:01053D00229B
:1004ED00AD071205057F9012045612049EAF05123A
:0804FD00045612054D02053EF4
:10000E00EC4D6011E8497017ED33EC3304600DE4EC
:10001E00FCFFFEFD22E933E8330470F80201BE1244
:10002E00018958046009E4CC248150062850090245
:10003E0001C82840030201C5C0E0EB4A7044B980F4
:10004E0006D0E0FB0201B4EF4E701CBD8008EBFF42
:10005E00EAFEE9FD80EBE98DF0A4FEE5F00200F783
:10006E00E9CDF9EAFEEBFFEF89F0A4FCE5F0CE89CD
:10007E00F0A42EFFE435F0CD89F0A42DFEE435F08A
:10008E008067EF4E7005BD80D780C3EF8BF0A4ACB8
:10009E00F0EE8BF0A42CFCE435F0F8EF8AF0A42CF3
:1000AE00E5F038FCE433CB8DF0A42CFCE5F03BF806
:1000BE00EE8AF0A42CFCE5F038F8E433CF89F0A4F6
:1000CE002CFCE5F038CF3400CE89F0A42FFFE5F0FC
:1000DE003EFEE433C98DF0A42EFEE5F039CD8AF054
:1000EE00A42FFFE5F03EFEE43DFD33D0E0FB5007CC
:1000FE000BBB000F0201C8EC2CFCEF33FFEE33FEFE
:06010E00ED33FD0201A02B
:1001140075F020800E75F010800575F0087D007E66
:10012400007F003392D530D50312023AEC334010ED
:10013400EF33FFEE33FEED33FDEC33FCD5F0ED226F
:0E014400E5F0247EA2D513CC92E7CDCEFF22AB
:10015200EDD2E7CD33EC3392D524814006E4FFFEA5
:10016200FDFC22FCE4CFCECDCC24E0501174FF8004
:10017200EDC3CC13CCCD13CDCE13CECF13CF0470A1
:07018200F030D5DE02023A65
:10018900E9D2E7C933E833F892D5EDD2E7CD33ECBC
:0701990033FC5002B2D52235
:1001A000EC30E7100FBF000C0EBE00080DBD0004C0
:1001B0000BEB6014A2D5EB13FCED92E7FD2274FF6C
:1001C000FCFDFEFF22E480F8A2D574FF13FC7D80C5
:0301D000E480EFD9
:1001D300EF8DF0A4A8F0CF8CF0A428CE8DF0A42E40
:0201E300FE22FA
:1001E500BC000BBE0029EF8DF084FFADF022E4CCFE
:1001F500F875F008EF2FFFEE33FEEC33FCEE9DECC7
:10020500984005FCEE9DFE0FD5F0E9E4CEFD22ED0C
:10021500F8F5F0EE8420D21CFEADF075F008EF2F56
:10022500FFED33FD4007985006D5F0F222C398FD47
:050235000FD5F0EA22E4
:0E023A00C3E49FFFE49EFEE49DFDE49CFC22D5
:00000001FF
